:020000040800F2
:1000000000280020F50B0008990B00089F0B000842
:10001000A50B0008AB0B0008B10B000800000000A6
:10002000000000000000000000000000B70B000806
:10003000C30B000800000000CF0B0008DB0B00081A
:100040003D0C00083D0C00083D0C00083D0C00086C
:100050003D0C00083D0C00083D0C00083D0C00085C
:100060003D0C00083D0C00083D0C00083D0C00084C
:100070003D0C00083D0C00083D0C00083D0C00083C
:100080003D0C00083D0C00083D0C00083D0C00082C
:100090003D0C00083D0C00083D0C00083D0C00081C
:1000A0003D0C00083D0C00083D0C00083D0C00080C
:1000B0003D0C00083D0C0008000000003D0C00084D
:1000C0003D0C000800000000000000003D0C00088E
:1000D000000000003D0C00083D0C0008000000007E
:1000E0003D0C00083D0C00083D0C0008000000001D
:1000F0000000000000000000000000000000000000
:0C01000000000000000000005FF808F1A3
:10010C0010B5054C237833B9044B13B10448AFF345
:10011C0000800123237010BD2C0000200000000083
:10012C00481A000808B5034B1BB103490348AFF349
:10013C00008008BD0000000030000020481A0008B4
:10014C0080B500AF384B1B68012B25D101228021D3
:10015C00364801F053F800222021344801F04EF8C3
:10016C00334B1B68013B324A1360314B1B681846FA
:10017C0000F0F0F82E4B1B68002B0DD12A4B0022FF
:10018C001A602B4B04221A6000228021274801F0B0
:10019C0035F8284B01221A60264B1B68012B20D105
:1001AC0001224021214801F029F8234B1B68013B17
:1001BC00214A1360204B1B68184600F0CBF81E4BED
:1001CC001B68002B0DD11B4B00221A601A4B03220B
:1001DC001A6000224021154801F010F8174B01223B
:1001EC001A60164B1B68012B1CD1012220210F48D1
:1001FC0001F004F8124B1B68013B114A1360104BC1
:10020C001B680133184600F0A5F80D4B1B68002B3A
:10021C0008D10A4B00221A60094B05221A60024BC6
:10022C0001221A6000BF80BD0000002000080140C0
:10023C000400002048000020080000204C00002092
:10024C000C00002080B500AF3B4B1B68012B28D164
:10025C0001224FF48071394800F0D0FF00224FF496
:10026C000071364800F0CAFF354B1B68013B344A1D
:10027C001360334B1B68184600F004FA304B1B68B4
:10028C00002B0ED12C4B00221A602D4B06221A602B
:10029C0000224FF48071294800F0B0FF294B012255
:1002AC001A60284B1B68012B22D101224FF480616C
:1002BC00224800F0A3FF244B1B68013B224A136029
:1002CC00214B1B68184600F0DDF91F4B1B68002BF7
:1002DC000ED11C4B00221A601B4B04221A60002208
:1002EC004FF48061154800F089FF184B01221A6009
:1002FC00164B1B68012B1DD101224FF400710F48C6
:10030C0000F07CFF124B1B68013B114A1360104B31
:10031C001B680133184600F0B5F90D4B1B68002B18
:10032C0008D10A4B00221A60094B02221A60024BB8
:10033C0001221A6000BF80BD10000020000801409F
:10034C001C0000205000002014000020540000204D
:10035C001800002080B582B000AF78607B68092B54
:10036C0000F2808101A252F823F000BFA103000823
:10037C00E90300083104000879040008C1040008EE
:10038C00090500085105000899050008E105000859
:10039C002906000800220121B84800F02FFF002296
:1003AC000221B64800F02AFF00220421B34800F0D5
:1003BC0025FF00220821B14800F020FF0022102167
:1003CC00AE4800F01BFF00222021AC4800F016FFC5
:1003DC0001224021A94800F011FF4AE1012201212C
:1003EC00A64800F00BFF00220221A44800F006FFF3
:1003FC0000220421A14800F001FF012208219F489E
:10040C0000F0FCFE012210219C4800F0F7FE0122B6
:10041C0020219A4800F0F2FE01224021974800F07A
:10042C00EDFE26E100220121944800F0E7FE0022B7
:10043C000221924800F0E2FE012204218F4800F0D4
:10044C00DDFE002208218D4800F0D8FE002210218C
:10045C008A4800F0D3FE01222021884800F0CEFE0D
:10046C0000224021854800F0C9FE02E10022012152
:10047C00824800F0C3FE00220221804800F0BEFE3C
:10048C00002204217D4800F0B9FE002208217B489F
:10049C0000F0B4FE01221021784800F0AFFE0122DA
:1004AC002021764800F0AAFE00224021734800F07B
:1004BC00A5FEDEE001220121704800F09FFE002223
:1004CC0002216E4800F09AFE002204216B4800F0D5
:1004DC0095FE01220821694800F090FE01221021AE
:1004EC00664800F08BFE00222021644800F086FE56
:1004FC0000224021614800F081FEBAE00022012177
:10050C005E4800F07BFE012202215C4800F076FE82
:10051C0000220421594800F071FE0022082157489E
:10052C0000F06CFE01221021544800F067FE0022FE
:10053C002021524800F062FE002240214F4800F07A
:10054C005DFE96E0002201214C4800F057FE01228E
:10055C0002214A4800F052FE00220421474800F0D4
:10056C004DFE00220821454800F048FE00221021D3
:10057C00424800F043FE00222021404800F03EFE9D
:10058C00002240213D4800F039FE72E0002201219A
:10059C003A4800F033FE00220221384800F02EFECB
:1005AC0000220421354800F029FE0122082133489D
:1005BC0000F024FE01221021304800F01FFE012221
:1005CC0020212E4800F01AFE012240212B4800F079
:1005DC0015FE4EE000220121284800F00FFE0022FB
:1005EC000221264800F00AFE00220421234800F0D4
:1005FC0005FE00220821214800F000FE00221021F7
:10060C001E4800F0FBFD002220211C4800F0F6FDE6
:10061C0000224021194800F0F1FD2AE000220121BE
:10062C00164800F0EBFD00220221144800F0E6FD14
:10063C0000220421114800F0E1FD002208210F489E
:10064C0000F0DCFD012210210C4800F0D7FD002247
:10065C0020210A4800F0D2FD00224021074800F07A
:10066C00CDFD06E001224FF6FF71054800F0C6FDF6
:10067C0000BF00BF0837BD4680BD00BF000C014065
:10068C000008014080B582B000AF78607B68092B10
:10069C0000F2948101A252F823F000BFD1060008A9
:1006AC001D07000869070008B507000801080008C5
:1006BC004D08000899080008E508000831090008F1
:1006CC007D09000800220221C24800F097FD00229B
:1006DC000421C04800F092FD00220821BD4800F022
:1006EC008DFD00221021BB4800F088FD00224FF444
:1006FC000061B84800F082FD00224FF48051B548EB
:10070C0000F07CFD01228021B34800F077FD5CE114
:10071C0001220221AF4800F071FD00220421AD48F6
:10072C0000F06CFD00220821AA4800F067FD0122B0
:10073C001021A84800F062FD01224FF40061A54889
:10074C0000F05CFD01224FF48051A24800F056FDF0
:10075C0001228021A04800F051FD36E10022022147
:10076C009C4800F04BFD002204219A4800F046FD05
:10077C0001220821974800F041FD002210219548E4
:10078C0000F03CFD00224FF40061924800F036FD71
:10079C0001224FF480518F4800F030FD002280215F
:1007AC008D4800F02BFD10E100220221894800F059
:1007BC0025FD00220421874800F020FD002208219D
:1007CC00844800F01BFD00221021824800F016FD29
:1007DC0001224FF400617F4800F010FD01224FF41C
:1007EC0080517C4800F00AFD002280217A4800F0FC
:1007FC0005FDEAE001220221764800F0FFFC002210
:10080C000421744800F0FAFC00220821714800F021
:10081C00F5FC012210216F4800F0F0FC01224FF48E
:10082C0000616C4800F0EAFC00224FF480516948EA
:10083C0000F0E4FC00228021674800F0DFFCC4E0FB
:10084C0000220221634800F0D9FC012204216148F6
:10085C0000F0D4FC002208215E4800F0CFFC0022FE
:10086C0010215C4800F0CAFC01224FF40061594889
:10087C0000F0C4FC00224FF48051564800F0BEFC3E
:10088C0000228021544800F0B9FC9EE00022022195
:10089C00504800F0B3FC012204214E4800F0AEFC9D
:1008AC00002208214B4800F0A9FC002210214948E5
:1008BC0000F0A4FC00224FF40061464800F09EFCBE
:1008CC0000224FF48051434800F098FC0022802114
:1008DC00414800F093FC78E0002202213D4800F0F2
:1008EC008DFC002204213B4800F088FC00220821EA
:1008FC00384800F083FC01221021364800F07EFCC1
:10090C0001224FF40061334800F078FC01224FF4CF
:10091C008051304800F072FC012280212E4800F0FA
:10092C006DFC52E0002202212A4800F067FC0022F4
:10093C000421284800F062FC00220821254800F020
:10094C005DFC00221021234800F058FC00224FF4DB
:10095C000061204800F052FC00224FF480511D48E9
:10096C0000F04CFC002280211B4800F047FC2CE0DE
:10097C0000220221174800F041FC002204211548F6
:10098C0000F03CFC00220821124800F037FC002249
:10099C001021104800F032FC01224FF400610D4888
:1009AC0000F02CFC00224FF480510A4800F026FC89
:1009BC0000228021084800F021FC06E001224FF6BD
:1009CC00FF71044800F01AFC00BF00BF0837BD4699
:1009DC0080BD00BF00080140000C014080B500AF95
:1009EC0000F028F900F00BF800F044F8FFF7A8FB32
:1009FC00FFF728FC4FF47A7000F07EF9F6E780B52B
:100A0C0090B000AF07F1180328220021184601F01E
:100A1C000DF83B1D00221A605A609A60DA601A6168
:100A2C000223BB610123BB621023FB6200237B63A7
:100A3C0007F11803184600F0F9FB0346002B01D010
:100A4C0000F06CF80F237B600023BB600023FB607D
:100A5C0000233B6100237B613B1D0021184600F005
:100A6C0065FE0346002B01D000F058F800BF40375C
:100A7C00BD4680BD80B586B000AF07F108030022EB
:100A8C001A605A609A60DA60214B9B69204A43F0E5
:100A9C00040393611E4B9B6903F004037B607B682A
:100AAC001B4B9B691A4A43F008039361184B9B69D3
:100ABC0003F008033B603B68002241F6FE711548C9
:100ACC0000F09CFB0022FF21134800F097FB41F63D
:100ADC00FE73BB600123FB6000233B6102237B613F
:100AEC0007F1080319460B4800F00EFAFF23BB6010
:100AFC000123FB6000233B6102237B6107F10803A8
:100B0C001946054800F000FA00BF1837BD4680BDF5
:100B1C000010024000080140000C014080B400AFFE
:100B2C0072B600BFFEE7000080B485B000AF154B75
:100B3C009B69144A43F001039361124B9B6903F0C8
:100B4C000103BB60BB680F4BDB690E4A43F080535B
:100B5C00D3610C4BDB6903F080537B607B680A4BE1
:100B6C005B68FB60FB6823F0E063FB60FB6843F0B1
:100B7C000073FB60044AFB68536000BF1437BD462A
:100B8C0080BC7047001002400000014080B400AFF0
:100B9C00FEE780B400AFFEE780B400AFFEE780B4A0
:100BAC0000AFFEE780B400AFFEE780B400AF00BF3B
:100BBC00BD4680BC704780B400AF00BFBD4680BC52
:100BCC00704780B400AF00BFBD4680BC704780B595
:100BDC0000AF00F075F800BF80BD80B400AF00BF5F
:100BEC00BD4680BC70470000FFF7F7FF0B480C496F
:100BFC000C4A002302E0D458C4500433C4188C426D
:100C0C00F9D3094A094C002301E013600432A242D3
:100C1C00FBD300F0E7FEFFF7E1FE70470000002079
:100C2C002C0000208C1A00082C0000205C000020F6
:100C3C00FEE7000080B500AF084B1B68074A43F085
:100C4C0010031360032000F02BF90F2000F008F8BC
:100C5C00FFF76AFF0023184680BD00BF002002404A
:100C6C0080B582B000AF7860124B1A68124B1B78BB
:100C7C0019464FF47A73B3FBF1F3B2FBF3F3184656
:100C8C0000F035F90346002B01D001230EE07B6800
:100C9C000F2B0AD8002279684FF0FF3000F00BF9C7
:100CAC00064A7B681360002300E0012318460837CE
:100CBC00BD4680BD2000002028000020240000201C
:100CCC0080B400AF054B1B781A46054B1B681344C8
:100CDC00034A136000BFBD4680BC7047280000204B
:100CEC005800002080B400AF024B1B681846BD466C
:100CFC0080BC70475800002080B584B000AF78608D
:100D0C00FFF7F0FFB8607B68FB60FB68B3F1FF3F57
:100D1C0005D00A4B1B781A46FB681344FB6000BFD6
:100D2C00FFF7E0FF0246BB68D31AFA689A42F7D87D
:100D3C0000BF00BF1037BD4680BD00BF280000209B
:100D4C0080B485B000AF78607B6803F00703FB606C
:100D5C000C4BDB68BB60BA684FF6FF031340BB60FB
:100D6C00FB681A02BB68134343F0BF6343F40033C0
:100D7C00BB60044ABB68D36000BF1437BD4680BC5F
:100D8C00704700BF00ED00E080B400AF044BDB689F
:100D9C001B0A03F007031846BD4680BC704700BF12
:100DAC0000ED00E080B483B000AF03463960FB7106
:100DBC0097F90730002B0ADB3B68DAB20C4997F93C
:100DCC0007301201D2B20B4483F800230AE03B68CF
:100DDC00DAB20849FB7903F00F03043B1201D2B2DB
:100DEC000B441A7600BF0C37BD4680BC704700BF61
:100DFC0000E100E000ED00E080B489B000AFF860E5
:100E0C00B9607A60FB6803F00703FB61FB69C3F10F
:100E1C000703042B28BF0423BB61FB690433062B97
:100E2C0002D9FB69033B00E000237B614FF0FF32EA
:100E3C00BB6902FA03F3DA43BB681A407B699A4038
:100E4C004FF0FF317B6901FA03F3D9437B680B4008
:100E5C00134318462437BD4680BC704780B582B01A
:100E6C0000AF78607B68013BB3F1807F01D3012335
:100E7C000FE00A4A7B68013B53600F214FF0FF30B3
:100E8C00FFF790FF054B00229A60044B07221A6073
:100E9C00002318460837BD4680BD00BF10E000E0B7
:100EAC0080B582B000AF78607868FFF749FF00BF6B
:100EBC000837BD4680BD80B586B000AF0346B9602B
:100ECC007A60FB7300237B61FFF75EFF78617A68C1
:100EDC00B9687869FFF790FF024697F90F30114611
:100EEC001846FFF75FFF00BF1837BD4680BD80B5C1
:100EFC0082B000AF78607868FFF7B0FF0346184601
:100F0C000837BD4680BD000080B48BB000AF786060
:100F1C00396000237B6200233B6248E101227B6A3B
:100F2C0002FA03F3FB613B681B68FA691340BB616F
:100F3C00BA69FB699A4240F037813B685B68A34A07
:100F4C0093425ED0A14A934275D8A14A934258D09D
:100F5C009F4A93426FD89F4A934252D09D4A9342E4
:100F6C0069D89D4A93424CD09B4A934263D89B4A82
:100F7C00934246D0994A93425DD8122B2AD8122B11
:100F8C0059D801A252F823F00F100008E90F0008FD
:100F9C00FB0F00083D100008431000084310000828
:100FAC0043100008431000084310000843100008C9
:100FBC0043100008431000084310000843100008B9
:100FCC00431000084310000843100008F10F0008FC
:100FDC0005100008824A934213D02CE03B68DB6872
:100FEC003B6229E03B68DB6804333B6224E03B68EE
:100FFC00DB6808333B621FE03B68DB680C333B6209
:10100C001AE03B689B68002B02D104233B6213E07F
:10101C003B689B68012B05D108233B627B68FA690E
:10102C001A6109E008233B627B68FA695A6103E0A4
:10103C0000233B6200E000BFBB69FF2B01D87B683B
:10104C0001E07B6804337B61BB69FF2B02D87B6AB0
:10105C009B0002E07B6A083B9B003B617B691A6842
:10106C000F213B6901FA03F3DB431A40396A3B69F0
:10107C0001FA03F31A437B691A603B685B6803F05F
:10108C008053002B00F09080564B9B69554A43F0DF
:10109C0001039361534B9B6903F00103BB60BB6875
:1010AC00514A7B6A9B08023352F82330FB607B6AFF
:1010BC0003F003039B000F2202FA03F3DB43FA68ED
:1010CC001340FB607B68494A93420DD07B68484AC9
:1010DC00934207D07B68474A934201D1022304E034
:1010EC00032302E0012300E000237A6A02F00302EA
:1010FC0092009340FA681343FB603B497B6A9B0860
:10110C000233FA6841F823203B685B6803F48013D0
:10111C00002B06D0384B9A683749BB6913438B6058
:10112C0006E0354B9A68BB69DB43334913408B604F
:10113C003B685B6803F40013002B06D02E4BDA6877
:10114C002D49BB691343CB6006E02B4BDA68BB69B6
:10115C00DB4329491340CB603B685B6803F40033E5
:10116C00002B06D0244B5A682349BB6913434B60B0
:10117C0006E0214B5A68BB69DB431F4913404B60A7
:10118C003B685B6803F48033002B06D01A4B1A685B
:10119C001949BB6913430B6006E0174B1A68BB690E
:1011AC00DB43154913400B607B6A01337B623B6860
:1011BC001A687B6A22FA03F3002B7FF4AFAE00BFF0
:1011CC0000BF2C37BD4680BC704700BF00003210FA
:1011DC00000031100000221000002110000012103D
:1011EC0000001110001002400000014000080140F6
:1011FC00000C0140001001400004014080B483B099
:10120C0000AF78600B467B8013467B707B78002B9D
:10121C0003D07A887B681A6103E07B881A047B68A8
:10122C001A6100BF0C37BD4680BC704780B586B0D4
:10123C0000AF78607B68002B01D101236CE27B68E6
:10124C001B6803F00103002B00F08780924B5B6856
:10125C0003F00C03042B0CD08F4B5B6803F00C03D6
:10126C00082B12D18C4B5B6803F48033B3F5803FB1
:10127C000BD1894B1B6803F40033002B6CD07B68BB
:10128C005B68002B68D1012346E27B685B68B3F591
:10129C00803F06D1804B1B687F4A43F48033136038
:1012AC002EE07B685B68002B0CD17B4B1B687A4A69
:1012BC0023F480331360784B1B68774A23F4802324
:1012CC0013601DE07B685B68B3F5A02F0CD1724BEB
:1012DC001B68714A43F4802313606F4B1B686E4A82
:1012EC0043F4803313600BE06B4B1B686A4A23F4A6
:1012FC0080331360684B1B68674A23F480231360A8
:10130C007B685B68002B13D0FFF7ECFC386108E0BE
:10131C00FFF7E8FC02463B69D31A642B01D903237F
:10132C00FAE15D4B1B6803F40033002BF0D014E0A2
:10133C00FFF7D8FC386108E0FFF7D4FC02463B69A4
:10134C00D31A642B01D90323E6E1534B1B6803F436
:10135C000033002BF0D100E000BF7B681B6803F06A
:10136C000203002B63D04C4B5B6803F00C03002B87
:10137C000BD0494B5B6803F00C03082B1CD1464B7C
:10138C005B6803F48033002B16D1434B1B6803F0CE
:10139C000203002B05D07B681B69012B01D00123B4
:1013AC00BAE13D4B1B6823F0F8027B685B69DB00FC
:1013BC00394913430B603AE07B681B69002B20D042
:1013CC00364B01221A60FFF78DFC386108E0FFF7FD
:1013DC0089FC02463B69D31A022B01D903239BE1FA
:1013EC002D4B1B6803F00203002BF0D02A4B1B681B
:1013FC0023F0F8027B685B69DB00274913430B6021
:10140C0015E0264B00221A60FFF76CFC386108E0EF
:10141C00FFF768FC02463B69D31A022B01D9032360
:10142C007AE11D4B1B6803F00203002BF0D17B68A3
:10143C001B6803F00803002B3AD07B689B69002BD8
:10144C0019D0174B01221A60FFF74CFC386108E0E9
:10145C00FFF748FC02463B69D31A022B01D9032340
:10146C005AE10D4B5B6A03F00203002BF0D0012014
:10147C0000F09AFA1CE00A4B00221A60FFF732FCCB
:10148C0038610FE0FFF72EFC02463B69D31A022BA2
:10149C0008D9032340E100BF001002400000424283
:1014AC00800442429E4B5B6A03F00203002BE9D19D
:1014BC007B681B6803F00403002B00F0A68000235C
:1014CC00FB75974BDB6903F08053002B0DD1944BCC
:1014DC00DB69934A43F08053D361914BDB6903F092
:1014EC008053BB60BB680123FB758E4B1B6803F4F8
:1014FC008073002B18D18B4B1B688A4A43F4807382
:10150C001360FFF7EFFB386108E0FFF7EBFB0246D7
:10151C003B69D31A642B01D90323FDE0814B1B6873
:10152C0003F48073002BF0D07B68DB68012B06D1B1
:10153C007B4B1B6A7A4A43F0010313622DE07B68F4
:10154C00DB68002B0CD1764B1B6A754A23F0010328
:10155C001362734B1B6A724A23F0040313621CE080
:10156C007B68DB68052B0CD16D4B1B6A6C4A43F016
:10157C00040313626A4B1B6A694A43F0010313624A
:10158C000BE0674B1B6A664A23F001031362644B42
:10159C001B6A634A23F0040313627B68DB68002B2D
:1015AC0015D0FFF79FFB38610AE0FFF79BFB024663
:1015BC003B69D31A41F28832934201D90323ABE041
:1015CC00574B1B6A03F00203002BEED014E0FFF71D
:1015DC0089FB38610AE0FFF785FB02463B69D31AA9
:1015EC0041F28832934201D9032395E04C4B1B6A9C
:1015FC0003F00203002BEED1FB7D012B05D1484BF0
:10160C00DB69474A23F08053D3617B68DB69002B8D
:10161C0000F08180424B5B6803F00C03082B61D017
:10162C007B68DB69022B46D13F4B00221A60FFF727
:10163C0059FB386108E0FFF755FB02463B69D31AAA
:10164C00022B01D9032367E0354B1B6803F00073B1
:10165C00002BF0D17B681B6AB3F5803F08D1304B6F
:10166C005B6823F400327B689B682D4913434B6005
:10167C002B4B5B6823F474127B68196A7B685B6A7A
:10168C000B43274913434B60274B01221A60FFF78A
:10169C0029FB386108E0FFF725FB02463B69D31AAA
:1016AC00022B01D9032337E01D4B1B6803F0007399
:1016BC00002BF0D02FE01C4B00221A60FFF712FB1E
:1016CC00386108E0FFF70EFB02463B69D31A022B88
:1016DC0001D9032320E0124B1B6803F00073002B8D
:1016EC00F0D118E07B68DB69012B01D1012313E0F9
:1016FC000B4B5B68FB60FB6803F480327B681B6AF6
:10170C009A4206D1FB6803F470127B685B6A9A42BA
:10171C0001D0012300E0002318461837BD4680BDD8
:10172C0000100240007000406000424280B584B05E
:10173C0000AF786039607B68002B01D10123D0E0C9
:10174C006A4B1B6803F007033A689A4210D9674B3F
:10175C001B6823F0070265493B6813430B60634B1E
:10176C001B6803F007033A689A4201D00123B8E0E2
:10177C007B681B6803F00203002B20D07B681B687E
:10178C0003F00403002B05D0594B5B68584A43F413
:10179C00E06353607B681B6803F00803002B05D0E3
:1017AC00534B5B68524A43F460535360504B5B6835
:1017BC0023F0F0027B689B684D4913434B607B68B8
:1017CC001B6803F00103002B40D07B685B68012B86
:1017DC0007D1474B1B6803F40033002B15D10123B1
:1017EC007FE07B685B68022B07D1414B1B6803F0E1
:1017FC000073002B09D1012373E03D4B1B6803F0F0
:10180C000203002B01D101236BE0394B5B6823F001
:10181C0003027B685B68364913434B60FFF762FA3F
:10182C00F8600AE0FFF75EFA0246FB68D31A41F251
:10183C008832934201D9032353E02D4B5B6803F0AC
:10184C000C027B685B689B009A42EBD1274B1B68B0
:10185C0003F007033A689A4210D2244B1B6823F01A
:10186C00070222493B6813430B60204B1B6803F0B3
:10187C0007033A689A4201D0012332E07B681B6867
:10188C0003F00403002B08D0194B5B6823F4E062CF
:10189C007B68DB68164913434B607B681B6803F05D
:1018AC000803002B09D0124B5B6823F460527B6851
:1018BC001B69DB000E4913434B6000F021F8024614
:1018CC000B4B5B681B0903F00F030A49CB5C22FA34
:1018DC0003F3094A1360094B1B681846FFF7C0F95C
:1018EC00002318461037BD4680BD00BF00200240C3
:1018FC0000100240601A0008200000202400002084
:10190C0080B487B000AF0023FB600023BB600023D2
:10191C007B6100237B6000233B611E4B5B68FB609B
:10192C00FB6803F00C03042B02D0082B03D027E038
:10193C00194B3B6127E0FB689B0C03F00F03174A24
:10194C00D35C7B60FB6803F48033002B10D0114B0D
:10195C005B685B0C03F00103114AD35CBB607B68D2
:10196C000D4A02FB03F2BB68B2FBF3F37B6104E0AC
:10197C007B680C4A02FB03F37B617B693B6102E0F1
:10198C00054B3B6100BF3B6918461C37BD4680BC0C
:10199C00704700BF0010024000127A00701A000855
:1019AC00801A000800093D0080B485B000AF786053
:1019BC000A4B1B680A4AA2FB03235B0A7A6802FBE8
:1019CC0003F3FB6000BFFB685A1EFA60002BF9D1D1
:1019DC0000BF00BF1437BD4680BC704720000020FC
:1019EC00D34D621070B500260C4D0D4C641BA41029
:1019FC00A64209D100F022F800260A4D0A4C641BBD
:101A0C00A410A64205D170BD55F8043B9847013689
:101A1C00EEE755F8043B98470136F2E7841A0008C4
:101A2C00841A0008841A0008881A00080346024425
:101A3C00934200D1704703F8011BF9E7F8B500BFDA
:101A4C00F8BC08BC9E467047F8B500BFF8BC08BC93
:041A5C009E467047EB
:101A6000000000000000000001020304060708094E
:101A700002030405060708090A0B0C0D0E0F1010CF
:041A8000010200005F
:041A84003101000824
:041A88000D01000844
:101A8C00010000000400000003000000050000003D
:101A9C00010000000400000002000000060000002D
:0C1AAC0000127A00100000000100000091
:0400000508000BF5EF
:00000001FF
